{
  "fileName": "Counter.sol",
  "contractName": "Counter",
  "source": "// contracts/Counter.sol\npragma solidity >=0.5.0 <0.7.0;\n\ncontract Counter {\n  uint256 public value;\n\n  function increase(uint256 amount) public {\n    value += amount;\n  }\n}\n",
  "sourcePath": "contracts/Counter.sol",
  "abi": [
    {
      "inputs": [
        {
          "internalType": "uint256",
          "name": "amount",
          "type": "uint256"
        }
      ],
      "name": "increase",
      "outputs": [],
      "stateMutability": "nonpayable",
      "type": "function"
    },
    {
      "inputs": [],
      "name": "value",
      "outputs": [
        {
          "internalType": "uint256",
          "name": "",
          "type": "uint256"
        }
      ],
      "stateMutability": "view",
      "type": "function"
    }
  ],
  "bytecode": "0x608060405234801561001057600080fd5b5060cc8061001f6000396000f3fe6080604052348015600f57600080fd5b506004361060325760003560e01c806330f3f0db1460375780633fa4f245146062575b600080fd5b606060048036036020811015604b57600080fd5b8101908080359060200190929190505050607e565b005b60686090565b6040518082815260200191505060405180910390f35b80600080828254019250508190555050565b6000548156fea2646970667358221220fab0d39180229e39bf940486ddb513f210975a5a9a7913b4e5ed540035f76f3764736f6c63430006060033",
  "compiler": {
    "name": "solc",
    "version": "0.6.6+commit.6c089d02.Emscripten.clang",
    "optimizer": {
      "enabled": false,
      "runs": 200
    },
    "evmVersion": "petersburg"
  }
}